{
  "contractName": "ItemManager",
  "abi": [
    {
      "anonymous": false,
      "inputs": [
        {
          "indexed": true,
          "internalType": "address",
          "name": "previousOwner",
          "type": "address"
        },
        {
          "indexed": true,
          "internalType": "address",
          "name": "newOwner",
          "type": "address"
        }
      ],
      "name": "OwnershipTransferred",
      "type": "event"
    },
    {
      "anonymous": false,
      "inputs": [
        {
          "indexed": false,
          "internalType": "uint256",
          "name": "_itemIndex",
          "type": "uint256"
        },
        {
          "indexed": false,
          "internalType": "uint256",
          "name": "_step",
          "type": "uint256"
        },
        {
          "indexed": false,
          "internalType": "address",
          "name": "_itemAddress",
          "type": "address"
        }
      ],
      "name": "SupplyChainStep",
      "type": "event"
    },
    {
      "inputs": [
        {
          "internalType": "uint256",
          "name": "",
          "type": "uint256"
        }
      ],
      "name": "items",
      "outputs": [
        {
          "internalType": "contract Item",
          "name": "_item",
          "type": "address"
        },
        {
          "internalType": "string",
          "name": "_identifier",
          "type": "string"
        },
        {
          "internalType": "uint256",
          "name": "_itemPrice",
          "type": "uint256"
        },
        {
          "internalType": "enum ItemManager.SupplyChainState",
          "name": "_state",
          "type": "uint8"
        }
      ],
      "stateMutability": "view",
      "type": "function",
      "constant": true
    },
    {
      "inputs": [],
      "name": "owner",
      "outputs": [
        {
          "internalType": "address",
          "name": "",
          "type": "address"
        }
      ],
      "stateMutability": "view",
      "type": "function",
      "constant": true
    },
    {
      "inputs": [],
      "name": "renounceOwnership",
      "outputs": [],
      "stateMutability": "nonpayable",
      "type": "function"
    },
    {
      "inputs": [
        {
          "internalType": "address",
          "name": "newOwner",
          "type": "address"
        }
      ],
      "name": "transferOwnership",
      "outputs": [],
      "stateMutability": "nonpayable",
      "type": "function"
    },
    {
      "inputs": [
        {
          "internalType": "string",
          "name": "_identifier",
          "type": "string"
        },
        {
          "internalType": "uint256",
          "name": "_itemPrice",
          "type": "uint256"
        }
      ],
      "name": "createItem",
      "outputs": [],
      "stateMutability": "nonpayable",
      "type": "function"
    },
    {
      "inputs": [
        {
          "internalType": "uint256",
          "name": "_itemIndex",
          "type": "uint256"
        }
      ],
      "name": "triggerPayment",
      "outputs": [],
      "stateMutability": "payable",
      "type": "function",
      "payable": true
    },
    {
      "inputs": [
        {
          "internalType": "uint256",
          "name": "_itemIndex",
          "type": "uint256"
        }
      ],
      "name": "triggerDelivery",
      "outputs": [],
      "stateMutability": "nonpayable",
      "type": "function"
    }
  ],
  "bytecode": "0x608060405234801561001057600080fd5b5060006100216100c460201b60201c565b9050806000806101000a81548173ffffffffffffffffffffffffffffffffffffffff021916908373ffffffffffffffffffffffffffffffffffffffff1602179055508073ffffffffffffffffffffffffffffffffffffffff16600073ffffffffffffffffffffffffffffffffffffffff167f8be0079c531659141344cd1fd0a4f28419497f9722a3daafe3b4186f6b6457e060405160405180910390a3506100cc565b600033905090565b611d47806100db6000396000f3fe6080604052600436106200007a5760003560e01c80638da5cb5b11620000555780638da5cb5b14620000e7578063bfb231d21462000117578063cd31831e146200015e578063f2fde38b146200018c576200007a565b8063715018a6146200007f578063800fb83f14620000995780638c55174214620000b9575b600080fd5b3480156200008c57600080fd5b5062000097620001ba565b005b620000b76004803603810190620000b1919062000f4c565b620002fb565b005b348015620000c657600080fd5b50620000e56004803603810190620000df919062000ef2565b6200056e565b005b348015620000f457600080fd5b50620000ff620007fb565b6040516200010e91906200113c565b60405180910390f35b3480156200012457600080fd5b506200014360048036038101906200013d919062000f4c565b62000824565b60405162000155949392919062001196565b60405180910390f35b3480156200016b57600080fd5b506200018a600480360381019062000184919062000f4c565b62000911565b005b3480156200019957600080fd5b50620001b86004803603810190620001b2919062000ec6565b62000bad565b005b620001c462000d60565b73ffffffffffffffffffffffffffffffffffffffff16620001e4620007fb565b73ffffffffffffffffffffffffffffffffffffffff16146200023d576040517f08c379a0000000000000000000000000000000000000000000000000000000008152600401620002349062001250565b60405180910390fd5b600073ffffffffffffffffffffffffffffffffffffffff1660008054906101000a900473ffffffffffffffffffffffffffffffffffffffff1673ffffffffffffffffffffffffffffffffffffffff167f8be0079c531659141344cd1fd0a4f28419497f9722a3daafe3b4186f6b6457e060405160405180910390a360008060006101000a81548173ffffffffffffffffffffffffffffffffffffffff021916908373ffffffffffffffffffffffffffffffffffffffff160217905550565b3460016000838152602001908152602001600020600201541462000356576040517f08c379a00000000000000000000000000000000000000000000000000000000081526004016200034d906200122e565b60405180910390fd5b6000600281111562000391577f4e487b7100000000000000000000000000000000000000000000000000000000600052602160045260246000fd5b6001600083815260200190815260200160002060030160009054906101000a900460ff166002811115620003ee577f4e487b7100000000000000000000000000000000000000000000000000000000600052602160045260246000fd5b1462000431576040517f08c379a00000000000000000000000000000000000000000000000000000000081526004016200042890620011ea565b60405180910390fd5b600180600083815260200190815260200160002060030160006101000a81548160ff0219169083600281111562000491577f4e487b7100000000000000000000000000000000000000000000000000000000600052602160045260246000fd5b02179055507fa4035636e99f06b7651a604c1019fa4e8779fe68ef27eeb74dff2de348f6199b60025460016000600254815260200190815260200160002060030160009054906101000a900460ff16600281111562000519577f4e487b7100000000000000000000000000000000000000000000000000000000600052602160045260246000fd5b60016000600254815260200190815260200160002060000160009054906101000a900473ffffffffffffffffffffffffffffffffffffffff16604051620005639392919062001272565b60405180910390a150565b6200057862000d60565b73ffffffffffffffffffffffffffffffffffffffff1662000598620007fb565b73ffffffffffffffffffffffffffffffffffffffff1614620005f1576040517f08c379a0000000000000000000000000000000000000000000000000000000008152600401620005e89062001250565b60405180910390fd5b60003082600254604051620006069062000d68565b620006149392919062001159565b604051809103906000f08015801562000631573d6000803e3d6000fd5b5090508060016000600254815260200190815260200160002060000160006101000a81548173ffffffffffffffffffffffffffffffffffffffff021916908373ffffffffffffffffffffffffffffffffffffffff160217905550826001600060025481526020019081526020016000206001019080519060200190620006b992919062000d76565b508160016000600254815260200190815260200160002060020181905550600060016000600254815260200190815260200160002060030160006101000a81548160ff021916908360028111156200073a577f4e487b7100000000000000000000000000000000000000000000000000000000600052602160045260246000fd5b02179055507fa4035636e99f06b7651a604c1019fa4e8779fe68ef27eeb74dff2de348f6199b60025460016000600254815260200190815260200160002060030160009054906101000a900460ff166002811115620007c2577f4e487b7100000000000000000000000000000000000000000000000000000000600052602160045260246000fd5b83604051620007d49392919062001272565b60405180910390a160026000815480929190620007f19062001464565b9190505550505050565b60008060009054906101000a900473ffffffffffffffffffffffffffffffffffffffff16905090565b60016020528060005260406000206000915090508060000160009054906101000a900473ffffffffffffffffffffffffffffffffffffffff16908060010180546200086f906200142e565b80601f01602080910402602001604051908101604052809291908181526020018280546200089d906200142e565b8015620008ee5780601f10620008c257610100808354040283529160200191620008ee565b820191906000526020600020905b815481529060010190602001808311620008d057829003601f168201915b5050505050908060020154908060030160009054906101000a900460ff16905084565b6200091b62000d60565b73ffffffffffffffffffffffffffffffffffffffff166200093b620007fb565b73ffffffffffffffffffffffffffffffffffffffff161462000994576040517f08c379a00000000000000000000000000000000000000000000000000000000081526004016200098b9062001250565b60405180910390fd5b60016002811115620009cf577f4e487b7100000000000000000000000000000000000000000000000000000000600052602160045260246000fd5b6001600083815260200190815260200160002060030160009054906101000a900460ff16600281111562000a2c577f4e487b7100000000000000000000000000000000000000000000000000000000600052602160045260246000fd5b1462000a6f576040517f08c379a000000000000000000000000000000000000000000000000000000000815260040162000a6690620011ea565b60405180910390fd5b60026001600083815260200190815260200160002060030160006101000a81548160ff0219169083600281111562000ad0577f4e487b7100000000000000000000000000000000000000000000000000000000600052602160045260246000fd5b02179055507fa4035636e99f06b7651a604c1019fa4e8779fe68ef27eeb74dff2de348f6199b60025460016000600254815260200190815260200160002060030160009054906101000a900460ff16600281111562000b58577f4e487b7100000000000000000000000000000000000000000000000000000000600052602160045260246000fd5b60016000600254815260200190815260200160002060000160009054906101000a900473ffffffffffffffffffffffffffffffffffffffff1660405162000ba29392919062001272565b60405180910390a150565b62000bb762000d60565b73ffffffffffffffffffffffffffffffffffffffff1662000bd7620007fb565b73ffffffffffffffffffffffffffffffffffffffff161462000c30576040517f08c379a000000000000000000000000000000000000000000000000000000000815260040162000c279062001250565b60405180910390fd5b600073ffffffffffffffffffffffffffffffffffffffff168173ffffffffffffffffffffffffffffffffffffffff16141562000ca3576040517f08c379a000000000000000000000000000000000000000000000000000000000815260040162000c9a906200120c565b60405180910390fd5b8073ffffffffffffffffffffffffffffffffffffffff1660008054906101000a900473ffffffffffffffffffffffffffffffffffffffff1673ffffffffffffffffffffffffffffffffffffffff167f8be0079c531659141344cd1fd0a4f28419497f9722a3daafe3b4186f6b6457e060405160405180910390a3806000806101000a81548173ffffffffffffffffffffffffffffffffffffffff021916908373ffffffffffffffffffffffffffffffffffffffff16021790555050565b600033905090565b61074780620015cb83390190565b82805462000d84906200142e565b90600052602060002090601f01602090048101928262000da8576000855562000df4565b82601f1062000dc357805160ff191683800117855562000df4565b8280016001018555821562000df4579182015b8281111562000df357825182559160200191906001019062000dd6565b5b50905062000e03919062000e07565b5090565b5b8082111562000e2257600081600090555060010162000e08565b5090565b600062000e3d62000e3784620012e3565b620012af565b90508281526020810184848401111562000e5657600080fd5b62000e63848285620013e9565b509392505050565b60008135905062000e7c8162001596565b92915050565b600082601f83011262000e9457600080fd5b813562000ea684826020860162000e26565b91505092915050565b60008135905062000ec081620015b0565b92915050565b60006020828403121562000ed957600080fd5b600062000ee98482850162000e6b565b91505092915050565b6000806040838503121562000f0657600080fd5b600083013567ffffffffffffffff81111562000f2157600080fd5b62000f2f8582860162000e82565b925050602062000f428582860162000eaf565b9150509250929050565b60006020828403121562000f5f57600080fd5b600062000f6f8482850162000eaf565b91505092915050565b62000f838162001332565b82525050565b62000f948162001385565b82525050565b62000fa581620013ad565b82525050565b62000fb681620013d5565b82525050565b600062000fc98262001316565b62000fd5818562001321565b935062000fe7818560208601620013f8565b62000ff2816200156e565b840191505092915050565b60006200100c601c8362001321565b91507f4974656d206973206675727468657220696e2074686520636861696e000000006000830152602082019050919050565b60006200104e60268362001321565b91507f4f776e61626c653a206e6577206f776e657220697320746865207a65726f206160008301527f64647265737300000000000000000000000000000000000000000000000000006020830152604082019050919050565b6000620010b6601b8362001321565b91507f4f6e6c792066756c6c207061796d656e747320616363657074656400000000006000830152602082019050919050565b6000620010f860208362001321565b91507f4f776e61626c653a2063616c6c6572206973206e6f7420746865206f776e65726000830152602082019050919050565b62001136816200137b565b82525050565b600060208201905062001153600083018462000f78565b92915050565b600060608201905062001170600083018662000f89565b6200117f60208301856200112b565b6200118e60408301846200112b565b949350505050565b6000608082019050620011ad600083018762000f9a565b8181036020830152620011c1818662000fbc565b9050620011d260408301856200112b565b620011e1606083018462000fab565b95945050505050565b60006020820190508181036000830152620012058162000ffd565b9050919050565b6000602082019050818103600083015262001227816200103f565b9050919050565b600060208201905081810360008301526200124981620010a7565b9050919050565b600060208201905081810360008301526200126b81620010e9565b9050919050565b60006060820190506200128960008301866200112b565b6200129860208301856200112b565b620012a7604083018462000f78565b949350505050565b6000604051905081810181811067ffffffffffffffff82111715620012d957620012d86200153f565b5b8060405250919050565b600067ffffffffffffffff8211156200130157620013006200153f565b5b601f19601f8301169050602081019050919050565b600081519050919050565b600082825260208201905092915050565b60006200133f826200135b565b9050919050565b600081905062001356826200157f565b919050565b600073ffffffffffffffffffffffffffffffffffffffff82169050919050565b6000819050919050565b6000620013928262001399565b9050919050565b6000620013a6826200135b565b9050919050565b6000620013ba82620013c1565b9050919050565b6000620013ce826200135b565b9050919050565b6000620013e28262001346565b9050919050565b82818337600083830152505050565b60005b8381101562001418578082015181840152602081019050620013fb565b8381111562001428576000848401525b50505050565b600060028204905060018216806200144757607f821691505b602082108114156200145e576200145d62001510565b5b50919050565b600062001471826200137b565b91507fffffffffffffffffffffffffffffffffffffffffffffffffffffffffffffffff821415620014a757620014a6620014b2565b5b600182019050919050565b7f4e487b7100000000000000000000000000000000000000000000000000000000600052601160045260246000fd5b7f4e487b7100000000000000000000000000000000000000000000000000000000600052602160045260246000fd5b7f4e487b7100000000000000000000000000000000000000000000000000000000600052602260045260246000fd5b7f4e487b7100000000000000000000000000000000000000000000000000000000600052604160045260246000fd5b6000601f19601f8301169050919050565b60038110620015935762001592620014e1565b5b50565b620015a18162001332565b8114620015ad57600080fd5b50565b620015bb816200137b565b8114620015c757600080fd5b5056fe608060405234801561001057600080fd5b50604051610747380380610747833981810160405281019061003291906100b3565b816000819055508060028190555082600360006101000a81548173ffffffffffffffffffffffffffffffffffffffff021916908373ffffffffffffffffffffffffffffffffffffffff16021790555050505061017e565b60008151905061009881610150565b92915050565b6000815190506100ad81610167565b92915050565b6000806000606084860312156100c857600080fd5b60006100d686828701610089565b93505060206100e78682870161009e565b92505060406100f88682870161009e565b9150509250925092565b600061010d82610126565b9050919050565b600061011f82610102565b9050919050565b600073ffffffffffffffffffffffffffffffffffffffff82169050919050565b6000819050919050565b61015981610114565b811461016457600080fd5b50565b61017081610146565b811461017b57600080fd5b50565b6105ba8061018d6000396000f3fe6080604052600436106100385760003560e01c80632986c0e5146102505780633c8da5881461027b57806389794d00146102a657610241565b3661024157600060015414610082576040517f08c379a000000000000000000000000000000000000000000000000000000000815260040161007990610460565b60405180910390fd5b34600054146100c6576040517f08c379a00000000000000000000000000000000000000000000000000000000081526004016100bd90610440565b60405180910390fd5b34600160008282546100d891906104c2565b925050819055506000600360009054906101000a900473ffffffffffffffffffffffffffffffffffffffff1673ffffffffffffffffffffffffffffffffffffffff163460025460405160240161012e9190610480565b6040516020818303038152906040527f800fb83f000000000000000000000000000000000000000000000000000000007bffffffffffffffffffffffffffffffffffffffffffffffffffffffff19166020820180517bffffffffffffffffffffffffffffffffffffffffffffffffffffffff83818316178352505050506040516101b89190610409565b60006040518083038185875af1925050503d80600081146101f5576040519150601f19603f3d011682016040523d82523d6000602084013e6101fa565b606091505b505090508061023e576040517f08c379a000000000000000000000000000000000000000000000000000000000815260040161023590610420565b60405180910390fd5b50005b34801561024d57600080fd5b50005b34801561025c57600080fd5b506102656102d1565b6040516102729190610480565b60405180910390f35b34801561028757600080fd5b506102906102d7565b60405161029d9190610480565b60405180910390f35b3480156102b257600080fd5b506102bb6102dd565b6040516102c89190610480565b60405180910390f35b60025481565b60005481565b60015481565b60006102ee8261049b565b6102f881856104a6565b9350610308818560208601610522565b80840191505092915050565b6000610321602d836104b1565b91507f546865207472616e73616374696f6e207761736e27742073756363657373667560008301527f6c2c2063616e63656c6c696e67000000000000000000000000000000000000006020830152604082019050919050565b6000610387601a836104b1565b91507f4f6e6c792066756c6c207061796d656e747320616c6c6f7765640000000000006000830152602082019050919050565b60006103c76014836104b1565b91507f4974656d20697320616c726561647920706169640000000000000000000000006000830152602082019050919050565b61040381610518565b82525050565b600061041582846102e3565b915081905092915050565b6000602082019050818103600083015261043981610314565b9050919050565b600060208201905081810360008301526104598161037a565b9050919050565b60006020820190508181036000830152610479816103ba565b9050919050565b600060208201905061049560008301846103fa565b92915050565b600081519050919050565b600081905092915050565b600082825260208201905092915050565b60006104cd82610518565b91506104d883610518565b9250827fffffffffffffffffffffffffffffffffffffffffffffffffffffffffffffffff0382111561050d5761050c610555565b5b828201905092915050565b6000819050919050565b60005b83811015610540578082015181840152602081019050610525565b8381111561054f576000848401525b50505050565b7f4e487b7100000000000000000000000000000000000000000000000000000000600052601160045260246000fdfea26469706673582212201dc735a0cb1553b6d29a24a378b7aa22307e2832a0dfbe73700b2d5985a0250364736f6c63430008000033a26469706673582212201b5c04120634c05251e8ccd0ec7a771afdd0b2fe6c419ab1e449d1dc0b2176ab64736f6c63430008000033",
  "immutableReferences": {},
  "source": "// SPDX-License-Identifier: GPL-3.0\r\npragma solidity >=0.4.16 <0.9.0;\r\n\r\nimport \"./Item.sol\";\r\nimport \"@openzeppelin/contracts/access/Ownable.sol\";\r\n// import \"https://github.com/OpenZeppelin/openzeppelin-contracts/blob/master/contracts/access/Ownable.sol\";\r\n\r\n\r\ncontract ItemManager is Ownable{\r\n\r\n    enum SupplyChainState{Created, Paid, Delivered}\r\n\r\n    struct S_Item {\r\n        Item _item;\r\n        string _identifier;\r\n        uint _itemPrice;\r\n        ItemManager.SupplyChainState _state;\r\n    }\r\n\r\n    mapping (uint=>S_Item) public items;\r\n    uint itemIndex;\r\n\r\n    event SupplyChainStep(uint _itemIndex, uint _step, address _itemAddress);\r\n\r\n    function createItem(string memory _identifier, uint _itemPrice) public onlyOwner{\r\n        Item item = new Item(this, _itemPrice, itemIndex);\r\n        items[itemIndex]._item = item;\r\n        items[itemIndex]._identifier = _identifier;\r\n        items[itemIndex]._itemPrice = _itemPrice;\r\n        items[itemIndex]._state = ItemManager.SupplyChainState.Created;\r\n\r\n        emit SupplyChainStep(itemIndex, uint(items[itemIndex]._state), address(item));\r\n        itemIndex++;\r\n    }\r\n\r\n\r\n    function triggerPayment(uint _itemIndex) public payable{\r\n        require(items[_itemIndex]._itemPrice == msg.value, \"Only full payments accepted\");\r\n        require(items[_itemIndex]._state == ItemManager.SupplyChainState.Created, \"Item is further in the chain\");\r\n        items[_itemIndex]._state = ItemManager.SupplyChainState.Paid;\r\n\r\n        emit SupplyChainStep(itemIndex, uint(items[itemIndex]._state), address(items[itemIndex]._item));\r\n    }\r\n\r\n\r\n    function triggerDelivery(uint _itemIndex) public onlyOwner{\r\n        require(items[_itemIndex]._state == ItemManager.SupplyChainState.Paid, \"Item is further in the chain\");\r\n        items[_itemIndex]._state = ItemManager.SupplyChainState.Delivered;\r\n\r\n        emit SupplyChainStep(itemIndex, uint(items[itemIndex]._state), address(items[itemIndex]._item));\r\n    }\r\n\r\n}",
  "sourcePath": "C:\\Users\\ricar\\Projects\\hello-world-sol\\contracts\\ItemManager.sol",
  "compiler": {
    "name": "solc",
    "version": "0.8.0+commit.c7dfd78e.Emscripten.clang"
  },
  "schemaVersion": "3.3.4",
  "updatedAt": "2021-04-07T22:00:36.445Z",
  "networkType": "ethereum",
  "devdoc": {
    "kind": "dev",
    "methods": {
      "owner()": {
        "details": "Returns the address of the current owner."
      },
      "renounceOwnership()": {
        "details": "Leaves the contract without owner. It will not be possible to call `onlyOwner` functions anymore. Can only be called by the current owner. NOTE: Renouncing ownership will leave the contract without an owner, thereby removing any functionality that is only available to the owner."
      },
      "transferOwnership(address)": {
        "details": "Transfers ownership of the contract to a new account (`newOwner`). Can only be called by the current owner."
      }
    },
    "version": 1
  },
  "userdoc": {
    "kind": "user",
    "methods": {},
    "version": 1
  }
}