{
  "contractName": "Item",
  "abi": [
    {
      "inputs": [
        {
          "internalType": "contract ItemManager",
          "name": "_parentContract",
          "type": "address"
        },
        {
          "internalType": "uint256",
          "name": "_priceInWei",
          "type": "uint256"
        },
        {
          "internalType": "uint256",
          "name": "_index",
          "type": "uint256"
        }
      ],
      "stateMutability": "nonpayable",
      "type": "constructor"
    },
    {
      "stateMutability": "nonpayable",
      "type": "fallback"
    },
    {
      "inputs": [],
      "name": "index",
      "outputs": [
        {
          "internalType": "uint256",
          "name": "",
          "type": "uint256"
        }
      ],
      "stateMutability": "view",
      "type": "function"
    },
    {
      "inputs": [],
      "name": "priceInWei",
      "outputs": [
        {
          "internalType": "uint256",
          "name": "",
          "type": "uint256"
        }
      ],
      "stateMutability": "view",
      "type": "function"
    },
    {
      "inputs": [],
      "name": "pricePaid",
      "outputs": [
        {
          "internalType": "uint256",
          "name": "",
          "type": "uint256"
        }
      ],
      "stateMutability": "view",
      "type": "function"
    },
    {
      "stateMutability": "payable",
      "type": "receive"
    }
  ],
  "bytecode": "0x608060405234801561001057600080fd5b50604051610747380380610747833981810160405281019061003291906100b3565b816000819055508060028190555082600360006101000a81548173ffffffffffffffffffffffffffffffffffffffff021916908373ffffffffffffffffffffffffffffffffffffffff16021790555050505061017e565b60008151905061009881610150565b92915050565b6000815190506100ad81610167565b92915050565b6000806000606084860312156100c857600080fd5b60006100d686828701610089565b93505060206100e78682870161009e565b92505060406100f88682870161009e565b9150509250925092565b600061010d82610126565b9050919050565b600061011f82610102565b9050919050565b600073ffffffffffffffffffffffffffffffffffffffff82169050919050565b6000819050919050565b61015981610114565b811461016457600080fd5b50565b61017081610146565b811461017b57600080fd5b50565b6105ba8061018d6000396000f3fe6080604052600436106100385760003560e01c80632986c0e5146102505780633c8da5881461027b57806389794d00146102a657610241565b3661024157600060015414610082576040517f08c379a000000000000000000000000000000000000000000000000000000000815260040161007990610460565b60405180910390fd5b34600054146100c6576040517f08c379a00000000000000000000000000000000000000000000000000000000081526004016100bd90610440565b60405180910390fd5b34600160008282546100d891906104c2565b925050819055506000600360009054906101000a900473ffffffffffffffffffffffffffffffffffffffff1673ffffffffffffffffffffffffffffffffffffffff163460025460405160240161012e9190610480565b6040516020818303038152906040527f800fb83f000000000000000000000000000000000000000000000000000000007bffffffffffffffffffffffffffffffffffffffffffffffffffffffff19166020820180517bffffffffffffffffffffffffffffffffffffffffffffffffffffffff83818316178352505050506040516101b89190610409565b60006040518083038185875af1925050503d80600081146101f5576040519150601f19603f3d011682016040523d82523d6000602084013e6101fa565b606091505b505090508061023e576040517f08c379a000000000000000000000000000000000000000000000000000000000815260040161023590610420565b60405180910390fd5b50005b34801561024d57600080fd5b50005b34801561025c57600080fd5b506102656102d1565b6040516102729190610480565b60405180910390f35b34801561028757600080fd5b506102906102d7565b60405161029d9190610480565b60405180910390f35b3480156102b257600080fd5b506102bb6102dd565b6040516102c89190610480565b60405180910390f35b60025481565b60005481565b60015481565b60006102ee8261049b565b6102f881856104a6565b9350610308818560208601610522565b80840191505092915050565b6000610321602d836104b1565b91507f546865207472616e73616374696f6e207761736e27742073756363657373667560008301527f6c2c2063616e63656c6c696e67000000000000000000000000000000000000006020830152604082019050919050565b6000610387601a836104b1565b91507f4f6e6c792066756c6c207061796d656e747320616c6c6f7765640000000000006000830152602082019050919050565b60006103c76014836104b1565b91507f4974656d20697320616c726561647920706169640000000000000000000000006000830152602082019050919050565b61040381610518565b82525050565b600061041582846102e3565b915081905092915050565b6000602082019050818103600083015261043981610314565b9050919050565b600060208201905081810360008301526104598161037a565b9050919050565b60006020820190508181036000830152610479816103ba565b9050919050565b600060208201905061049560008301846103fa565b92915050565b600081519050919050565b600081905092915050565b600082825260208201905092915050565b60006104cd82610518565b91506104d883610518565b9250827fffffffffffffffffffffffffffffffffffffffffffffffffffffffffffffffff0382111561050d5761050c610555565b5b828201905092915050565b6000819050919050565b60005b83811015610540578082015181840152602081019050610525565b8381111561054f576000848401525b50505050565b7f4e487b7100000000000000000000000000000000000000000000000000000000600052601160045260246000fdfea26469706673582212201dc735a0cb1553b6d29a24a378b7aa22307e2832a0dfbe73700b2d5985a0250364736f6c63430008000033",
  "immutableReferences": {},
  "source": "// SPDX-License-Identifier: GPL-3.0\r\npragma solidity >=0.4.16 <0.9.0;\r\n\r\nimport \"./ItemManager.sol\";\r\n\r\ncontract Item{\r\n    uint public priceInWei;\r\n    uint public pricePaid;\r\n    uint public index;\r\n\r\n    ItemManager parentContract;\r\n\r\n    constructor(ItemManager _parentContract, uint _priceInWei, uint _index){\r\n        priceInWei = _priceInWei;\r\n        index = _index;\r\n        parentContract = _parentContract;\r\n    }\r\n\r\n    receive() external payable {\r\n        require(pricePaid == 0, \"Item is already paid\");\r\n        require(priceInWei == msg.value, \"Only full payments allowed\");\r\n        pricePaid += msg.value;\r\n        // Calling 'triggerPayment' function from ItemManager contract.\r\n        (bool success,) = address(parentContract).call{value: msg.value}(abi.encodeWithSignature(\"triggerPayment(uint256)\", index));\r\n        // returns true if the transaction was successful.\r\n        require(success, \"The transaction wasn't successful, cancelling\");\r\n   }\r\n\r\n   fallback () external{}\r\n}",
  "sourcePath": "C:\\Users\\ricar\\Projects\\hello-world-sol\\contracts\\Item.sol",
  "compiler": {
    "name": "solc",
    "version": "0.8.0+commit.c7dfd78e.Emscripten.clang"
  },
  "schemaVersion": "3.3.4",
  "updatedAt": "2021-04-07T22:00:33.745Z",
  "devdoc": {
    "kind": "dev",
    "methods": {},
    "version": 1
  },
  "userdoc": {
    "kind": "user",
    "methods": {},
    "version": 1
  }
}